{
  "contractName": "Garantia",
  "abi": [
    {
      "anonymous": false,
      "inputs": [
        {
          "indexed": false,
          "internalType": "uint256",
          "name": "id",
          "type": "uint256"
        }
      ],
      "name": "ItemEntregue",
      "type": "event"
    },
    {
      "anonymous": false,
      "inputs": [
        {
          "indexed": false,
          "internalType": "uint256",
          "name": "id",
          "type": "uint256"
        }
      ],
      "name": "PagamentoRealizado",
      "type": "event"
    },
    {
      "anonymous": false,
      "inputs": [
        {
          "indexed": false,
          "internalType": "uint256",
          "name": "id",
          "type": "uint256"
        }
      ],
      "name": "TransacaoCancelada",
      "type": "event"
    },
    {
      "anonymous": false,
      "inputs": [
        {
          "indexed": false,
          "internalType": "uint256",
          "name": "id",
          "type": "uint256"
        },
        {
          "indexed": false,
          "internalType": "address",
          "name": "comprador",
          "type": "address"
        },
        {
          "indexed": false,
          "internalType": "address",
          "name": "vendedor",
          "type": "address"
        },
        {
          "indexed": false,
          "internalType": "uint256",
          "name": "valor",
          "type": "uint256"
        }
      ],
      "name": "TransacaoCriada",
      "type": "event"
    },
    {
      "inputs": [],
      "name": "proximold",
      "outputs": [
        {
          "internalType": "uint256",
          "name": "",
          "type": "uint256"
        }
      ],
      "stateMutability": "view",
      "type": "function",
      "constant": true
    },
    {
      "inputs": [
        {
          "internalType": "address",
          "name": "_vendedor",
          "type": "address"
        }
      ],
      "name": "criarTransacao",
      "outputs": [
        {
          "internalType": "uint256",
          "name": "",
          "type": "uint256"
        }
      ],
      "stateMutability": "payable",
      "type": "function",
      "payable": true
    },
    {
      "inputs": [
        {
          "internalType": "uint256",
          "name": "_id",
          "type": "uint256"
        }
      ],
      "name": "confirmarEntrega",
      "outputs": [],
      "stateMutability": "nonpayable",
      "type": "function"
    },
    {
      "inputs": [
        {
          "internalType": "uint256",
          "name": "_id",
          "type": "uint256"
        }
      ],
      "name": "cancelarTransacao",
      "outputs": [],
      "stateMutability": "nonpayable",
      "type": "function"
    }
  ],
  "bytecode": "0x60806040526001805534801561001457600080fd5b5061063b806100246000396000f3fe60806040526004361061003f5760003560e01c80631f358e0f14610044578063e0127a491461006c578063eea7f8241461008e578063fbc82d6d146100ae575b600080fd5b34801561005057600080fd5b5061005a60015481565b60405190815260200160405180910390f35b34801561007857600080fd5b5061008c61008736600461057f565b6100c1565b005b34801561009a57600080fd5b5061008c6100a936600461057f565b610279565b61005a6100bc366004610598565b6103ab565b600081815260208190526040902080546001600160a01b03163314806100f3575060018101546001600160a01b031633145b6101365760405162461bcd60e51b815260206004820152600f60248201526e55736172696f20696e76616c69646f60881b60448201526064015b60405180910390fd5b600160038083015460ff1690811115610151576101516105c8565b146101925760405162461bcd60e51b81526020600482015260116024820152702730b7903837b2329031b0b731b2b630b960791b604482015260640161012d565b6003818101805460ff19169091179055805460028201546040516000926001600160a01b031691908381818185875af1925050503d80600081146101f2576040519150601f19603f3d011682016040523d82523d6000602084013e6101f7565b606091505b50509050806102405760405162461bcd60e51b81526020600482015260156024820152742330b634309030b79032b73b34b0b91022ba3432b960591b604482015260640161012d565b6040518381527f0cfdbf9169b8ebe8b5cce751e23f5f5e87c15943abbf24fc46ad996d0e625c28906020015b60405180910390a1505050565b6000818152602081905260408082206001810154600282015492519193926001600160a01b03909116918381818185875af1925050503d80600081146102db576040519150601f19603f3d011682016040523d82523d6000602084013e6102e0565b606091505b50509050806103295760405162461bcd60e51b81526020600482015260156024820152742330b634309030b79032b73b34b0b91022ba3432b960591b604482015260640161012d565b60038201805460ff191660029081179091556001830154908301546040516001600160a01b03909216916108fc82150291906000818181858888f1935050505015801561037a573d6000803e3d6000fd5b506040518381527fdfa3923562901f47581c838920d6e514e2146e0695f5bcb9050c60b04642bf059060200161026c565b60008034116103f15760405162461bcd60e51b815260206004820152601260248201527153616c646f20696e737566696369656e746560701b604482015260640161012d565b6001600160a01b03821661043a5760405162461bcd60e51b815260206004820152601060248201526f7573756172696f20696e76616c69646f60801b604482015260640161012d565b600180546000918261044b836105de565b90915550604080516080810182523381526001600160a01b03861660208201523491810191909152909150606081016001905260008281526020818152604091829020835181546001600160a01b039182166001600160a01b0319918216178355928501516001808401805492909316919094161790559183015160028301556060830151600380840180549293909260ff19169184908111156104f1576104f16105c8565b021790555050604080518381523360208201526001600160a01b0386168183015234606082015290517f83a311eac1e630688a88a4c7b8dc3cf98241c6cc3d4f0afa21e810414c91d65a92509081900360800190a16040518181527fa8079a09bf0a025bba199f24c0649d38ae172437b0905a4183414033fd669a0a9060200160405180910390a192915050565b60006020828403121561059157600080fd5b5035919050565b6000602082840312156105aa57600080fd5b81356001600160a01b03811681146105c157600080fd5b9392505050565b634e487b7160e01b600052602160045260246000fd5b6000600182016105fe57634e487b7160e01b600052601160045260246000fd5b506001019056fea2646970667358221220a1ce2cf5dc4e277e6b5f75556467a86e82553443c511e2b15329141465db254164736f6c63430008150033",
  "immutableReferences": {},
  "source": "// SPDX-License-Identifier: MIT\r\npragma solidity ^0.8.19;\r\n\r\ncontract Garantia {\r\n    enum Estado {Crieado, Pago, Entregue, Cancelado}\r\n\r\n    struct Transacao {\r\n        address comprador;\r\n        address vendedor;\r\n        uint256 valor;\r\n        Estado estado;\r\n    }\r\n\r\n    mapping(uint256 => Transacao) transacos;\r\n    uint256 public proximold =1;\r\n\r\n    event TransacaoCriada(uint256 id, address comprador, address vendedor, uint256 valor);\r\n    event PagamentoRealizado(uint256 id);\r\n    event ItemEntregue(uint256 id);\r\n    event TransacaoCancelada(uint256 id);\r\n\r\n    function criarTransacao(address _vendedor) public payable returns(uint256){\r\n        require(msg.value > 0, \"Saldo insuficiente\");\r\n        require(_vendedor != address(0), \"usuario invalido\");\r\n\r\n        uint256 id = proximold++;\r\n\r\n        transacos[id] = Transacao({\r\n            comprador: msg.sender,\r\n            vendedor: _vendedor,\r\n            valor: msg.value,\r\n            estado: Estado.Pago\r\n        });\r\n\r\n        emit TransacaoCriada(id, msg.sender, _vendedor, msg.value);\r\n        emit PagamentoRealizado(id);\r\n\r\n        return id;\r\n    }\r\n\r\n    function confirmarEntrega(uint256 _id) public {\r\n        Transacao storage t = transacos[_id];\r\n\r\n        (bool success, ) = payable(t.vendedor).call{value: t.valor}(\"\");\r\n        require(success, \"Falha ao enviar Ether\");\r\n\r\n\r\n        t.estado = Estado.Entregue;\r\n        \r\n        payable(t.vendedor).transfer(t.valor);\r\n\r\n        emit ItemEntregue(_id);\r\n    }\r\n\r\n    function cancelarTransacao(uint256 _id) public {\r\n        Transacao storage t = transacos[_id];\r\n        require(msg.sender == t.comprador || msg.sender == t.vendedor, \"Usario invalido\");\r\n        require(t.estado == Estado.Pago, \"Nao pode cancelar\");\r\n\r\n        t.estado = Estado.Cancelado;\r\n        \r\n        (bool success, ) = payable(t.comprador).call{value: t.valor}(\"\");\r\n        require(success, \"Falha ao enviar Ether\");\r\n\r\n        emit TransacaoCancelada(_id);\r\n    }\r\n}",
  "sourcePath": "C:\\Users\\Jorge Paim\\Desktop\\Estudo\\ContratosPublicos_Solidity\\estudo_block\\contracts\\Garantia.sol",
  "compiler": {
    "name": "solc",
    "version": "0.8.21+commit.d9974bed.Emscripten.clang"
  },
  "schemaVersion": "3.4.16",
  "updatedAt": "2025-12-29T08:33:14.005Z",
  "networkType": "ethereum",
  "devdoc": {
    "kind": "dev",
    "methods": {},
    "version": 1
  },
  "userdoc": {
    "kind": "user",
    "methods": {},
    "version": 1
  }
}