{
  "contractName": "LuminarCoin",
  "abi": [
    {
      "inputs": [
        {
          "internalType": "uint256",
          "name": "_total",
          "type": "uint256"
        }
      ],
      "stateMutability": "nonpayable",
      "type": "constructor"
    },
    {
      "anonymous": false,
      "inputs": [
        {
          "indexed": true,
          "internalType": "address",
          "name": "de",
          "type": "address"
        },
        {
          "indexed": true,
          "internalType": "address",
          "name": "para",
          "type": "address"
        },
        {
          "indexed": false,
          "internalType": "uint256",
          "name": "valor",
          "type": "uint256"
        }
      ],
      "name": "Transfer",
      "type": "event"
    },
    {
      "inputs": [
        {
          "internalType": "address",
          "name": "",
          "type": "address"
        }
      ],
      "name": "balanceOf",
      "outputs": [
        {
          "internalType": "uint256",
          "name": "",
          "type": "uint256"
        }
      ],
      "stateMutability": "view",
      "type": "function",
      "constant": true
    },
    {
      "inputs": [],
      "name": "nome",
      "outputs": [
        {
          "internalType": "string",
          "name": "",
          "type": "string"
        }
      ],
      "stateMutability": "view",
      "type": "function",
      "constant": true
    },
    {
      "inputs": [],
      "name": "simbulo",
      "outputs": [
        {
          "internalType": "string",
          "name": "",
          "type": "string"
        }
      ],
      "stateMutability": "view",
      "type": "function",
      "constant": true
    },
    {
      "inputs": [],
      "name": "total",
      "outputs": [
        {
          "internalType": "uint256",
          "name": "",
          "type": "uint256"
        }
      ],
      "stateMutability": "view",
      "type": "function",
      "constant": true
    },
    {
      "inputs": [
        {
          "internalType": "address",
          "name": "_para",
          "type": "address"
        },
        {
          "internalType": "uint256",
          "name": "_valor",
          "type": "uint256"
        }
      ],
      "name": "transfer",
      "outputs": [
        {
          "internalType": "bool",
          "name": "",
          "type": "bool"
        }
      ],
      "stateMutability": "nonpayable",
      "type": "function"
    }
  ],
  "bytecode": "0x60c0604052600b60809081526a263ab6b4b730b921b7b4b760a91b60a05260009061002a9082610137565b506040805180820190915260038152624c4d4360e81b60208201526001906100529082610137565b5034801561005f57600080fd5b506040516105ea3803806105ea83398101604081905261007e916101f6565b60028190553360009081526003602052604090205561020f565b634e487b7160e01b600052604160045260246000fd5b600181811c908216806100c257607f821691505b6020821081036100e257634e487b7160e01b600052602260045260246000fd5b50919050565b601f82111561013257600081815260208120601f850160051c8101602086101561010f5750805b601f850160051c820191505b8181101561012e5782815560010161011b565b5050505b505050565b81516001600160401b0381111561015057610150610098565b6101648161015e84546100ae565b846100e8565b602080601f83116001811461019957600084156101815750858301515b600019600386901b1c1916600185901b17855561012e565b600085815260208120601f198616915b828110156101c8578886015182559484019460019091019084016101a9565b50858210156101e65787850151600019600388901b60f8161c191681555b5050505050600190811b01905550565b60006020828403121561020857600080fd5b5051919050565b6103cc8061021e6000396000f3fe608060405234801561001057600080fd5b50600436106100575760003560e01c806328a6bf651461005c5780632ddbd13a1461007a5780632deb124b1461009157806370a0823114610099578063a9059cbb146100b9575b600080fd5b6100646100dc565b604051610071919061026a565b60405180910390f35b61008360025481565b604051908152602001610071565b61006461016a565b6100836100a73660046102d4565b60036020526000908152604090205481565b6100cc6100c73660046102f6565b610177565b6040519015158152602001610071565b600180546100e990610320565b80601f016020809104026020016040519081016040528092919081815260200182805461011590610320565b80156101625780601f1061013757610100808354040283529160200191610162565b820191906000526020600020905b81548152906001019060200180831161014557829003601f168201915b505050505081565b600080546100e990610320565b336000908152600360205260408120548211156101cf5760405162461bcd60e51b815260206004820152601260248201527156616c6f7220696e737566696369656e746560701b604482015260640160405180910390fd5b33600090815260036020526040812080548492906101ee908490610370565b90915550506001600160a01b0383166000908152600360205260408120805484929061021b908490610383565b90915550506040518281526001600160a01b0384169033907fddf252ad1be2c89b69c2b068fc378daa952ba7f163c4a11628f55a4df523b3ef9060200160405180910390a35060015b92915050565b600060208083528351808285015260005b818110156102975785810183015185820160400152820161027b565b506000604082860101526040601f19601f8301168501019250505092915050565b80356001600160a01b03811681146102cf57600080fd5b919050565b6000602082840312156102e657600080fd5b6102ef826102b8565b9392505050565b6000806040838503121561030957600080fd5b610312836102b8565b946020939093013593505050565b600181811c9082168061033457607f821691505b60208210810361035457634e487b7160e01b600052602260045260246000fd5b50919050565b634e487b7160e01b600052601160045260246000fd5b818103818111156102645761026461035a565b808201808211156102645761026461035a56fea264697066735822122064b5106b27e5d5e87e771d8545801eac9537d6a0bc61f5e5c7988cdf30f50eb764736f6c63430008150033",
  "immutableReferences": {},
  "source": "//SPDX-License-Identifier: MIT\r\npragma solidity ^0.8.19;\r\n\r\ncontract LuminarCoin {\r\n    string public nome = \"LuminarCoin\";\r\n    string public simbulo = \"LMC\";\r\n    uint256 public total;\r\n\r\n    mapping(address => uint256) public balanceOf;\r\n\r\n    event Transfer(address indexed de,address indexed para,uint256 valor);\r\n\r\n    constructor(uint256 _total) {\r\n        total = _total;\r\n        balanceOf[msg.sender] = _total;\r\n    }\r\n\r\n    function transfer(address _para, uint256 _valor) public returns(bool) {\r\n        require(balanceOf[msg.sender] >= _valor,\"Valor insuficiente\");\r\n        balanceOf[msg.sender] -= _valor;\r\n        balanceOf[_para] += _valor;\r\n\r\n        emit Transfer(msg.sender, _para, _valor);\r\n        return true;\r\n    }\r\n}",
  "sourcePath": "C:\\Users\\Jorge Paim\\Desktop\\Estudo\\estudo_block\\contracts\\LuminarCoin.sol",
  "compiler": {
    "name": "solc",
    "version": "0.8.21+commit.d9974bed.Emscripten.clang"
  },
  "schemaVersion": "3.4.16",
  "updatedAt": "2025-12-26T15:55:33.520Z",
  "networkType": "ethereum",
  "devdoc": {
    "kind": "dev",
    "methods": {},
    "version": 1
  },
  "userdoc": {
    "kind": "user",
    "methods": {},
    "version": 1
  }
}