{
  "contractName": "OracleSimples",
  "abi": [
    {
      "inputs": [],
      "stateMutability": "nonpayable",
      "type": "constructor"
    },
    {
      "anonymous": false,
      "inputs": [
        {
          "indexed": false,
          "internalType": "uint256",
          "name": "novoPreco",
          "type": "uint256"
        },
        {
          "indexed": false,
          "internalType": "uint256",
          "name": "timestamp",
          "type": "uint256"
        }
      ],
      "name": "PrecoAtualizado",
      "type": "event"
    },
    {
      "inputs": [],
      "name": "oraculo",
      "outputs": [
        {
          "internalType": "address",
          "name": "",
          "type": "address"
        }
      ],
      "stateMutability": "view",
      "type": "function",
      "constant": true
    },
    {
      "inputs": [],
      "name": "precoBTC",
      "outputs": [
        {
          "internalType": "uint256",
          "name": "",
          "type": "uint256"
        }
      ],
      "stateMutability": "view",
      "type": "function",
      "constant": true
    },
    {
      "inputs": [],
      "name": "ultimaAtualizacao",
      "outputs": [
        {
          "internalType": "uint256",
          "name": "",
          "type": "uint256"
        }
      ],
      "stateMutability": "view",
      "type": "function",
      "constant": true
    },
    {
      "inputs": [
        {
          "internalType": "uint256",
          "name": "_novoPreco",
          "type": "uint256"
        }
      ],
      "name": "atualizarPreco",
      "outputs": [],
      "stateMutability": "nonpayable",
      "type": "function"
    },
    {
      "inputs": [],
      "name": "obeterPreco",
      "outputs": [
        {
          "internalType": "uint256",
          "name": "",
          "type": "uint256"
        },
        {
          "internalType": "uint256",
          "name": "",
          "type": "uint256"
        }
      ],
      "stateMutability": "view",
      "type": "function",
      "constant": true
    },
    {
      "inputs": [
        {
          "internalType": "address",
          "name": "_novoOraculo",
          "type": "address"
        }
      ],
      "name": "mudarOraculo",
      "outputs": [],
      "stateMutability": "nonpayable",
      "type": "function"
    }
  ],
  "bytecode": "0x608060405234801561001057600080fd5b50600080546001600160a01b0319163317905561029c806100326000396000f3fe608060405234801561001057600080fd5b50600436106100625760003560e01c8063558db77b1461006757806355bcac5d146100875780635ed2c7491461009c578063b0954230146100b3578063c203e54f146100de578063efe2cc43146100f1575b600080fd5b600154600254604080519283526020830191909152015b60405180910390f35b61009a61009536600461021d565b6100fa565b005b6100a560025481565b60405190815260200161007e565b6000546100c6906001600160a01b031681565b6040516001600160a01b03909116815260200161007e565b61009a6100ec36600461024d565b61017b565b6100a560015481565b6000546001600160a01b031633146101595760405162461bcd60e51b815260206004820152601f60248201527f4170656e6173206f206f726163756c6f20706f646520617475616c697a61720060448201526064015b60405180910390fd5b600080546001600160a01b0319166001600160a01b0392909216919091179055565b6000546001600160a01b031633146101d55760405162461bcd60e51b815260206004820152601f60248201527f4170656e6173206f206f726163756c6f20706f646520617475616c697a6172006044820152606401610150565b60018190554260028190556040805183815260208101929092527f27f1d2d58a9d309ce9c9bada5a9af4f81f34c3c0e3af40c9ab6f16feafa1d209910160405180910390a150565b60006020828403121561022f57600080fd5b81356001600160a01b038116811461024657600080fd5b9392505050565b60006020828403121561025f57600080fd5b503591905056fea2646970667358221220c6a43e55cdfac3b206c533043afb9389a39cf9d25ffb6c6daecf9c8fdfdaa04a64736f6c63430008150033",
  "immutableReferences": {},
  "source": "pragma solidity ^0.8.19;\r\n\r\ncontract OracleSimples {\r\n    address public oraculo;\r\n    uint256 public precoBTC;\r\n    uint256 public ultimaAtualizacao;\r\n\r\n    event PrecoAtualizado(uint256 novoPreco, uint256 timestamp);\r\n\r\n    constructor() {\r\n        oraculo = msg.sender;\r\n    }\r\n\r\n    modifier apenasOraculo() {\r\n        require(msg.sender == oraculo, \"Apenas o oraculo pode atualizar\");\r\n        _;\r\n    }\r\n\r\n    function atualizarPreco(uint256 _novoPreco) public apenasOraculo() {\r\n        precoBTC = _novoPreco;\r\n        ultimaAtualizacao = block.timestamp;\r\n        emit PrecoAtualizado(_novoPreco, block.timestamp);\r\n    }\r\n\r\n    function obeterPreco() public view returns(uint256, uint256) {\r\n        return(precoBTC, ultimaAtualizacao);\r\n    }\r\n\r\n    function mudarOraculo(address _novoOraculo) public apenasOraculo {\r\n        oraculo = _novoOraculo;\r\n    }\r\n}",
  "sourcePath": "C:\\Users\\Jorge Paim\\Desktop\\Estudo\\ContratosPublicos_Solidity\\estudo_block\\contracts\\OracleSimples.sol",
  "compiler": {
    "name": "solc",
    "version": "0.8.21+commit.d9974bed.Emscripten.clang"
  },
  "schemaVersion": "3.4.16",
  "updatedAt": "2025-12-29T08:33:14.250Z",
  "networkType": "ethereum",
  "devdoc": {
    "kind": "dev",
    "methods": {},
    "version": 1
  },
  "userdoc": {
    "kind": "user",
    "methods": {},
    "version": 1
  }
}