{
  "contractName": "Pagamento",
  "abi": [
    {
      "inputs": [],
      "stateMutability": "nonpayable",
      "type": "constructor"
    },
    {
      "anonymous": false,
      "inputs": [
        {
          "indexed": true,
          "internalType": "address",
          "name": "conta",
          "type": "address"
        },
        {
          "indexed": false,
          "internalType": "uint256",
          "name": "valor",
          "type": "uint256"
        }
      ],
      "name": "Deposito",
      "type": "event"
    },
    {
      "anonymous": false,
      "inputs": [
        {
          "indexed": true,
          "internalType": "address",
          "name": "conta",
          "type": "address"
        },
        {
          "indexed": false,
          "internalType": "uint256",
          "name": "valor",
          "type": "uint256"
        }
      ],
      "name": "Saque",
      "type": "event"
    },
    {
      "anonymous": false,
      "inputs": [
        {
          "indexed": true,
          "internalType": "address",
          "name": "de",
          "type": "address"
        },
        {
          "indexed": true,
          "internalType": "address",
          "name": "para",
          "type": "address"
        },
        {
          "indexed": false,
          "internalType": "uint256",
          "name": "valor",
          "type": "uint256"
        }
      ],
      "name": "Transferir",
      "type": "event"
    },
    {
      "inputs": [],
      "name": "dono",
      "outputs": [
        {
          "internalType": "address",
          "name": "",
          "type": "address"
        }
      ],
      "stateMutability": "view",
      "type": "function",
      "constant": true
    },
    {
      "inputs": [
        {
          "internalType": "address",
          "name": "",
          "type": "address"
        }
      ],
      "name": "saldo",
      "outputs": [
        {
          "internalType": "uint256",
          "name": "",
          "type": "uint256"
        }
      ],
      "stateMutability": "view",
      "type": "function",
      "constant": true
    },
    {
      "stateMutability": "payable",
      "type": "receive",
      "payable": true
    },
    {
      "inputs": [],
      "name": "deposito",
      "outputs": [],
      "stateMutability": "payable",
      "type": "function",
      "payable": true
    },
    {
      "inputs": [],
      "name": "consultarSaldo",
      "outputs": [
        {
          "internalType": "uint256",
          "name": "",
          "type": "uint256"
        }
      ],
      "stateMutability": "view",
      "type": "function",
      "constant": true
    },
    {
      "inputs": [
        {
          "internalType": "uint256",
          "name": "_valor",
          "type": "uint256"
        }
      ],
      "name": "sacar",
      "outputs": [],
      "stateMutability": "nonpayable",
      "type": "function"
    },
    {
      "inputs": [
        {
          "internalType": "address",
          "name": "_para",
          "type": "address"
        },
        {
          "internalType": "uint256",
          "name": "_valor",
          "type": "uint256"
        }
      ],
      "name": "transferencia",
      "outputs": [],
      "stateMutability": "nonpayable",
      "type": "function"
    }
  ],
  "bytecode": "0x608060405234801561001057600080fd5b50600080546001600160a01b03191633179055610567806100326000396000f3fe6080604052600436106100595760003560e01c8063422fb525146100be5780635758ecc5146100fe57806370514bea146101205780637371b0d6146101585780637af327a014610178578063d6f033fd1461018057600080fd5b366100b957336000908152600160205260408120805434929061007d908490610484565b909155505060405134815233907f453529dac6ef979a41d67fbeeabdfae29903c185f64d77aa690df9eca5f1aa609060200160405180910390a2005b600080fd5b3480156100ca57600080fd5b506100eb6100d93660046104b9565b60016020526000908152604090205481565b6040519081526020015b60405180910390f35b34801561010a57600080fd5b5061011e6101193660046104db565b6101a2565b005b34801561012c57600080fd5b50600054610140906001600160a01b031681565b6040516001600160a01b0390911681526020016100f5565b34801561016457600080fd5b5061011e610173366004610505565b6102d1565b61011e6103af565b34801561018c57600080fd5b50336000908152600160205260409020546100eb565b336000908152600160205260409020548111156101fb5760405162461bcd60e51b815260206004820152601260248201527153616c646f20696e737566696369656e746560701b60448201526064015b60405180910390fd5b3361023c5760405162461bcd60e51b8152602060048201526011602482015270456e64657265636f20696e76616c69646f60781b60448201526064016101f2565b336000908152600160205260408120805483929061025b90849061051e565b90915550506001600160a01b03821660009081526001602052604081208054839290610288908490610484565b90915550506040518181526001600160a01b0383169033907f7733802e58a9e5bf65903c6cf1296d3f3d081c643f5369552d2ad085ed0fd77f9060200160405180910390a35050565b336000908152600160205260409020548111156103255760405162461bcd60e51b815260206004820152601260248201527153616c646f20696e737566696369656e746560701b60448201526064016101f2565b336000908152600160205260408120805483929061034490849061051e565b9091555050604051339082156108fc029083906000818181858888f19350505050158015610376573d6000803e3d6000fd5b5060405181815233907f014a0fee2e4f4636f4de7bc3c3662262d3d28152c5700f9ad350ef2e02a9b2789060200160405180910390a250565b600034116104135760405162461bcd60e51b815260206004820152602b60248201527f53616c646f20696e737566696369656e74652c2074656d20717565207365722060448201526a06d61696f722071756520360ac1b60648201526084016101f2565b3360009081526001602052604081208054349290610432908490610484565b909155505060405134815233907f453529dac6ef979a41d67fbeeabdfae29903c185f64d77aa690df9eca5f1aa609060200160405180910390a2565b634e487b7160e01b600052601160045260246000fd5b808201808211156104975761049761046e565b92915050565b80356001600160a01b03811681146104b457600080fd5b919050565b6000602082840312156104cb57600080fd5b6104d48261049d565b9392505050565b600080604083850312156104ee57600080fd5b6104f78361049d565b946020939093013593505050565b60006020828403121561051757600080fd5b5035919050565b818103818111156104975761049761046e56fea264697066735822122093090eacceaaa54a18139cd24340e4e6eb219781342621fc0749cfe61fb42fa264736f6c63430008150033",
  "immutableReferences": {},
  "source": "pragma solidity ^0.8.19;\r\n\r\ncontract Pagamento {\r\n    address public dono;\r\n    \r\n    mapping(address => uint256) public saldo;\r\n\r\n    event Deposito(address indexed conta, uint256 valor);\r\n    event Saque(address indexed conta, uint256 valor);\r\n    event Transferir(address indexed de, address indexed para, uint256 valor);\r\n\r\n    constructor() {\r\n        dono = msg.sender;\r\n    }\r\n\r\n    function deposito() public payable {\r\n        require(msg.value > 0,\"Saldo insuficiente, tem que ser maior que 0\");\r\n        saldo[msg.sender] += msg.value;\r\n        emit Deposito(msg.sender, msg.value);\r\n    }\r\n\r\n    function consultarSaldo() public view returns(uint256) {\r\n        return saldo[msg.sender];\r\n    }\r\n\r\n    function sacar(uint256 _valor) public {\r\n        require(saldo[msg.sender] >= _valor,\"Saldo insuficiente\");\r\n        \r\n        saldo[msg.sender] -= _valor;\r\n        payable(msg.sender).transfer(_valor);\r\n\r\n        emit Saque(msg.sender, _valor);\r\n    }\r\n\r\n    function transferencia(address _para, uint256 _valor) public {\r\n        require(saldo[msg.sender] >= _valor, \"Saldo insuficiente\");\r\n        require(msg.sender != address(0), \"Endereco invalido\");\r\n\r\n        saldo[msg.sender] -= _valor;\r\n        saldo[_para] += _valor;\r\n\r\n        emit Transferir(msg.sender, _para, _valor);\r\n    }\r\n\r\n    receive() external payable {\r\n        saldo[msg.sender] += msg.value;\r\n        emit Deposito(msg.sender, msg.value);\r\n    }\r\n}",
  "sourcePath": "C:\\Users\\Jorge Paim\\Desktop\\Estudo\\estudo_block\\contracts\\Pagamento.sol",
  "compiler": {
    "name": "solc",
    "version": "0.8.21+commit.d9974bed.Emscripten.clang"
  },
  "schemaVersion": "3.4.16",
  "updatedAt": "2025-12-26T15:55:33.679Z",
  "networkType": "ethereum",
  "devdoc": {
    "kind": "dev",
    "methods": {},
    "version": 1
  },
  "userdoc": {
    "kind": "user",
    "methods": {},
    "version": 1
  }
}