{
  "contractName": "PoolDeLiquidez",
  "abi": [
    {
      "inputs": [
        {
          "internalType": "address",
          "name": "_tokenA",
          "type": "address"
        },
        {
          "internalType": "address",
          "name": "_tokenB",
          "type": "address"
        }
      ],
      "stateMutability": "nonpayable",
      "type": "constructor"
    },
    {
      "anonymous": false,
      "inputs": [
        {
          "indexed": true,
          "internalType": "address",
          "name": "provedor",
          "type": "address"
        },
        {
          "indexed": false,
          "internalType": "uint256",
          "name": "quantidadeA",
          "type": "uint256"
        },
        {
          "indexed": false,
          "internalType": "uint256",
          "name": "quantidadeB",
          "type": "uint256"
        },
        {
          "indexed": false,
          "internalType": "uint256",
          "name": "lpToken",
          "type": "uint256"
        }
      ],
      "name": "LiquidezAdicionada",
      "type": "event"
    },
    {
      "anonymous": false,
      "inputs": [
        {
          "indexed": true,
          "internalType": "address",
          "name": "provador",
          "type": "address"
        },
        {
          "indexed": false,
          "internalType": "uint256",
          "name": "quantidadeA",
          "type": "uint256"
        },
        {
          "indexed": false,
          "internalType": "uint256",
          "name": "quantidadeB",
          "type": "uint256"
        },
        {
          "indexed": false,
          "internalType": "uint256",
          "name": "lpToken",
          "type": "uint256"
        }
      ],
      "name": "LiquidezRemivida",
      "type": "event"
    },
    {
      "anonymous": false,
      "inputs": [
        {
          "indexed": true,
          "internalType": "address",
          "name": "usuario",
          "type": "address"
        },
        {
          "indexed": false,
          "internalType": "address",
          "name": "tokenln",
          "type": "address"
        },
        {
          "indexed": false,
          "internalType": "uint256",
          "name": "amountLn",
          "type": "uint256"
        },
        {
          "indexed": false,
          "internalType": "uint256",
          "name": "amountOut",
          "type": "uint256"
        }
      ],
      "name": "Swap",
      "type": "event"
    },
    {
      "inputs": [],
      "name": "FEE",
      "outputs": [
        {
          "internalType": "uint256",
          "name": "",
          "type": "uint256"
        }
      ],
      "stateMutability": "view",
      "type": "function",
      "constant": true
    },
    {
      "inputs": [],
      "name": "FEE_DENOMINATOR",
      "outputs": [
        {
          "internalType": "uint256",
          "name": "",
          "type": "uint256"
        }
      ],
      "stateMutability": "view",
      "type": "function",
      "constant": true
    },
    {
      "inputs": [
        {
          "internalType": "address",
          "name": "",
          "type": "address"
        }
      ],
      "name": "lpBalance",
      "outputs": [
        {
          "internalType": "uint256",
          "name": "",
          "type": "uint256"
        }
      ],
      "stateMutability": "view",
      "type": "function",
      "constant": true
    },
    {
      "inputs": [],
      "name": "reservaA",
      "outputs": [
        {
          "internalType": "uint256",
          "name": "",
          "type": "uint256"
        }
      ],
      "stateMutability": "view",
      "type": "function",
      "constant": true
    },
    {
      "inputs": [],
      "name": "reservaB",
      "outputs": [
        {
          "internalType": "uint256",
          "name": "",
          "type": "uint256"
        }
      ],
      "stateMutability": "view",
      "type": "function",
      "constant": true
    },
    {
      "inputs": [],
      "name": "tokenA",
      "outputs": [
        {
          "internalType": "contract IERC20",
          "name": "",
          "type": "address"
        }
      ],
      "stateMutability": "view",
      "type": "function",
      "constant": true
    },
    {
      "inputs": [],
      "name": "tokenB",
      "outputs": [
        {
          "internalType": "contract IERC20",
          "name": "",
          "type": "address"
        }
      ],
      "stateMutability": "view",
      "type": "function",
      "constant": true
    },
    {
      "inputs": [],
      "name": "totalLPTokens",
      "outputs": [
        {
          "internalType": "uint256",
          "name": "",
          "type": "uint256"
        }
      ],
      "stateMutability": "view",
      "type": "function",
      "constant": true
    },
    {
      "inputs": [
        {
          "internalType": "uint256",
          "name": "_quantidadeA",
          "type": "uint256"
        },
        {
          "internalType": "uint256",
          "name": "_quantidadeB",
          "type": "uint256"
        }
      ],
      "name": "addLiquidez",
      "outputs": [
        {
          "internalType": "uint256",
          "name": "",
          "type": "uint256"
        }
      ],
      "stateMutability": "nonpayable",
      "type": "function"
    },
    {
      "inputs": [
        {
          "internalType": "uint256",
          "name": "_lpTokens",
          "type": "uint256"
        }
      ],
      "name": "removerLiquidez",
      "outputs": [
        {
          "internalType": "uint256",
          "name": "",
          "type": "uint256"
        },
        {
          "internalType": "uint256",
          "name": "",
          "type": "uint256"
        }
      ],
      "stateMutability": "nonpayable",
      "type": "function"
    },
    {
      "inputs": [
        {
          "internalType": "uint256",
          "name": "_quantidadeA",
          "type": "uint256"
        }
      ],
      "name": "swapAporB",
      "outputs": [
        {
          "internalType": "uint256",
          "name": "",
          "type": "uint256"
        }
      ],
      "stateMutability": "nonpayable",
      "type": "function"
    },
    {
      "inputs": [
        {
          "internalType": "uint256",
          "name": "_quantidadeB",
          "type": "uint256"
        }
      ],
      "name": "swapBporA",
      "outputs": [
        {
          "internalType": "uint256",
          "name": "",
          "type": "uint256"
        }
      ],
      "stateMutability": "nonpayable",
      "type": "function"
    },
    {
      "inputs": [],
      "name": "obterPrecoA",
      "outputs": [
        {
          "internalType": "uint256",
          "name": "",
          "type": "uint256"
        }
      ],
      "stateMutability": "view",
      "type": "function",
      "constant": true
    },
    {
      "inputs": [],
      "name": "obterPrecoB",
      "outputs": [
        {
          "internalType": "uint256",
          "name": "",
          "type": "uint256"
        }
      ],
      "stateMutability": "view",
      "type": "function",
      "constant": true
    }
  ],
  "bytecode": "0x608060405234801561001057600080fd5b50604051610e7b380380610e7b83398101604081905261002f9161007c565b600080546001600160a01b039384166001600160a01b031991821617909155600180549290931691161790556100af565b80516001600160a01b038116811461007757600080fd5b919050565b6000806040838503121561008f57600080fd5b61009883610060565b91506100a660208401610060565b90509250929050565b610dbd806100be6000396000f3fe608060405234801561001057600080fd5b50600436106100ea5760003560e01c8063883347e71161008c578063d73792a911610066578063d73792a9146101b8578063e29e0974146101c1578063e8dfbee0146101e1578063ef6283d9146101f457600080fd5b8063883347e714610175578063c57981b51461019d578063cad8d764146101a557600080fd5b80632ad1a8f5116100c85780632ad1a8f51461013f57806340ba8b55146101525780635f64b55b1461015a578063802ec05a1461016d57600080fd5b80630fc63d10146100ef57806317fd902a1461011f5780632860aaa414610136575b600080fd5b600054610102906001600160a01b031681565b6040516001600160a01b0390911681526020015b60405180910390f35b61012860035481565b604051908152602001610116565b61012860025481565b61012861014d366004610c68565b6101fd565b610128610463565b600154610102906001600160a01b031681565b6101286104ca565b610188610183366004610c68565b610522565b60408051928352602083019190915201610116565b610128600381565b6101286101b3366004610c81565b61077a565b6101286103e881565b6101286101cf366004610ca3565b60056020526000908152604090205481565b6101286101ef366004610c68565b6109aa565b61012860045481565b60008082116102485760405162461bcd60e51b815260206004820152601260248201527156616c6f7220696e737566696369656e746560701b60448201526064015b60405180910390fd5b600061025760036103e8610ce2565b6102619084610cf5565b90506000816103e86002546102769190610cf5565b6102809190610d0c565b60035461028d9084610cf5565b6102979190610d1f565b90506000811180156102aa575060035481105b6102ee5760405162461bcd60e51b81526020600482015260156024820152744c6971756964657a20696e737566696369656e746560581b604482015260640161023f565b6000546040516323b872dd60e01b81526001600160a01b03909116906323b872dd9061032290339030908990600401610d41565b6020604051808303816000875af1158015610341573d6000803e3d6000fd5b505050506040513d601f19601f820116820180604052508101906103659190610d65565b5060015460405163a9059cbb60e01b8152336004820152602481018390526001600160a01b039091169063a9059cbb906044016020604051808303816000875af11580156103b7573d6000803e3d6000fd5b505050506040513d601f19601f820116820180604052508101906103db9190610d65565b5083600260008282546103ee9190610d0c565b9250508190555080600360008282546104079190610ce2565b9091555050600054604080516001600160a01b03909216825260208201869052810182905233907ffa2dda1cc1b86e41239702756b13effbc1a092b5c57e3ad320fbe4f3b13fe235906060015b60405180910390a29392505050565b600080600354116104a35760405162461bcd60e51b815260206004820152600a602482015269506f6f6c2076617a696f60b01b604482015260640161023f565b6003546002546104bb90670de0b6b3a7640000610cf5565b6104c59190610d1f565b905090565b6000806002541161050a5760405162461bcd60e51b815260206004820152600a602482015269506f6f6c2076617a696f60b01b604482015260640161023f565b6002546003546104bb90670de0b6b3a7640000610cf5565b6000806000831180156105445750336000908152600560205260409020548311155b6105865760405162461bcd60e51b8152602060048201526013602482015272546f6b656e7320696e737566696369656e746560681b604482015260640161023f565b60006004546105a16002548661059c9190610cf5565b610c00565b6105ab9190610d1f565b905060006004546105c36003548761059c9190610cf5565b6105cd9190610d1f565b336000908152600560205260408120805492935087929091906105f1908490610ce2565b92505081905550846004600082825461060a9190610ce2565b9250508190555081600260008282546106239190610ce2565b92505081905550806003600082825461063c9190610ce2565b909155505060005460405163a9059cbb60e01b8152336004820152602481018490526001600160a01b039091169063a9059cbb906044016020604051808303816000875af1158015610692573d6000803e3d6000fd5b505050506040513d601f19601f820116820180604052508101906106b69190610d65565b5060015460405163a9059cbb60e01b8152336004820152602481018390526001600160a01b039091169063a9059cbb906044016020604051808303816000875af1158015610708573d6000803e3d6000fd5b505050506040513d601f19601f8201168201806040525081019061072c9190610d65565b50604080518381526020810183905290810186905233907f337efeb6736dfbe24a5f751668e759e2d239a2e1c489e509536aae6bc8c5f7c09060600160405180910390a29094909350915050565b6000808311801561078b5750600082115b6107cd5760405162461bcd60e51b81526020600482015260136024820152725175616e74696461646520696e76616c69646160681b604482015260640161023f565b6000546040516323b872dd60e01b81526001600160a01b03909116906323b872dd9061080190339030908890600401610d41565b6020604051808303816000875af1158015610820573d6000803e3d6000fd5b505050506040513d601f19601f820116820180604052508101906108449190610d65565b506001546040516323b872dd60e01b81526001600160a01b03909116906323b872dd9061087990339030908790600401610d41565b6020604051808303816000875af1158015610898573d6000803e3d6000fd5b505050506040513d601f19601f820116820180604052508101906108bc9190610d65565b5060006108cc61059c8486610cf5565b9050600081116109175760405162461bcd60e51b81526020600482015260166024820152754c5020546f6b656e7320696e737566696369656e746560501b604482015260640161023f565b3360009081526005602052604081208054839290610936908490610d0c565b92505081905550806004600082825461094f9190610d0c565b909155505060028490556003839055604080518581526020810185905290810182905233907f06cb38a75916f9a89199d13b088c917611ae591bc62a57f42fc9c595beb642c99060600160405180910390a290505b92915050565b60008082116109f05760405162461bcd60e51b815260206004820152601260248201527156616c6f7220696e737566696369656e746560701b604482015260640161023f565b60006109ff60036103e8610ce2565b610a099084610cf5565b90506000816103e8600254610a1e9190610cf5565b610a289190610d0c565b600254610a359084610cf5565b610a3f9190610d1f565b9050600081118015610a52575060025481105b610a965760405162461bcd60e51b81526020600482015260156024820152744c6971756964657a20696e737566696369656e746560581b604482015260640161023f565b6000546040516323b872dd60e01b81526001600160a01b03909116906323b872dd90610aca90339030908990600401610d41565b6020604051808303816000875af1158015610ae9573d6000803e3d6000fd5b505050506040513d601f19601f82011682018060405250810190610b0d9190610d65565b5060015460405163a9059cbb60e01b8152336004820152602481018390526001600160a01b039091169063a9059cbb906044016020604051808303816000875af1158015610b5f573d6000803e3d6000fd5b505050506040513d601f19601f82011682018060405250810190610b839190610d65565b508360036000828254610b969190610d0c565b925050819055508060026000828254610baf9190610ce2565b9091555050600154604080516001600160a01b03909216825260208201869052810182905233907ffa2dda1cc1b86e41239702756b13effbc1a092b5c57e3ad320fbe4f3b13fe23590606001610454565b600081600003610c1257506000919050565b60006002610c21846001610d0c565b610c2b9190610d1f565b9050825b80821015610c61575080600281610c468187610d1f565b610c509190610d0c565b610c5a9190610d1f565b9150610c2f565b9392505050565b600060208284031215610c7a57600080fd5b5035919050565b60008060408385031215610c9457600080fd5b50508035926020909101359150565b600060208284031215610cb557600080fd5b81356001600160a01b0381168114610c6157600080fd5b634e487b7160e01b600052601160045260246000fd5b818103818111156109a4576109a4610ccc565b80820281158282048414176109a4576109a4610ccc565b808201808211156109a4576109a4610ccc565b600082610d3c57634e487b7160e01b600052601260045260246000fd5b500490565b6001600160a01b039384168152919092166020820152604081019190915260600190565b600060208284031215610d7757600080fd5b81518015158114610c6157600080fdfea2646970667358221220ff4a0d02415ea5e1cf66e574ac2f9ee1fd5147e8f8d0a59066e84cb51426862e64736f6c63430008150033",
  "immutableReferences": {},
  "source": "pragma solidity ^0.8.19;\r\n\r\ninterface IERC20 {\r\n    function transfer(address to, uint256 amount) external returns(bool);\r\n    function transferFrom(address from, address to, uint256 amount) external returns(bool);\r\n    function balanceOf(address account) external view returns(uint256);\r\n}\r\n\r\ncontract PoolDeLiquidez {\r\n    IERC20 public tokenA;\r\n    IERC20 public tokenB;\r\n\r\n    uint256 public reservaA;\r\n    uint256 public reservaB;\r\n\r\n    uint256 public totalLPTokens;\r\n    mapping(address => uint256) public lpBalance;\r\n\r\n    uint256 public constant FEE = 3;\r\n    uint256 public constant FEE_DENOMINATOR = 1000;\r\n\r\n    event LiquidezAdicionada(address indexed provedor, uint256 quantidadeA, uint256 quantidadeB, uint256 lpToken);\r\n    event LiquidezRemivida(address indexed provador, uint256 quantidadeA, uint256 quantidadeB, uint256 lpToken);\r\n    event Swap(address indexed usuario, address tokenln, uint256 amountLn, uint256 amountOut);\r\n\r\n    constructor(address _tokenA, address _tokenB) {\r\n        tokenA = IERC20(_tokenA);\r\n        tokenB = IERC20(_tokenB);\r\n    }\r\n\r\n    function addLiquidez(uint256 _quantidadeA, uint256 _quantidadeB) public returns(uint256) {\r\n        require(_quantidadeA > 0 && _quantidadeB > 0, \"Quantidade invalida\");\r\n\r\n        tokenA.transferFrom(msg.sender, address(this), _quantidadeA);\r\n        tokenB.transferFrom(msg.sender, address(this), _quantidadeB);\r\n\r\n        uint256 lpTokensMintados;\r\n\r\n        if(lpTokensMintados == 0) {\r\n            lpTokensMintados = sqrt(_quantidadeA * _quantidadeB);\r\n        } else {\r\n            uint256 lpA = sqrt(_quantidadeA * totalLPTokens) / reservaA;\r\n            uint256 lpB = sqrt(_quantidadeB * totalLPTokens) / reservaB;\r\n\r\n            lpTokensMintados = lpA < lpB ? lpA : lpB;\r\n        }\r\n\r\n        require(lpTokensMintados > 0, \"LP Tokens insuficiente\");\r\n\r\n        lpBalance[msg.sender] += lpTokensMintados;\r\n        totalLPTokens += lpTokensMintados;\r\n\r\n        reservaA = _quantidadeA;\r\n        reservaB = _quantidadeB;\r\n\r\n        emit LiquidezAdicionada(msg.sender, _quantidadeA, _quantidadeB, lpTokensMintados);\r\n\r\n        return lpTokensMintados;\r\n    }\r\n\r\n    function removerLiquidez(uint256 _lpTokens) public returns(uint256, uint256) {\r\n        require(_lpTokens > 0 && lpBalance[msg.sender] >= _lpTokens, \"Tokens insuficiente\");\r\n\r\n        uint256 quantidadeA = sqrt(_lpTokens * reservaA) / totalLPTokens;\r\n        uint256 quantidadeB = sqrt(_lpTokens * reservaB) / totalLPTokens;\r\n\r\n        lpBalance[msg.sender] -= _lpTokens;\r\n        totalLPTokens -= _lpTokens;\r\n\r\n        reservaA -= quantidadeA;\r\n        reservaB -= quantidadeB;\r\n\r\n        tokenA.transfer(msg.sender, quantidadeA);\r\n        tokenB.transfer(msg.sender, quantidadeB);\r\n\r\n        emit LiquidezRemivida(msg.sender, quantidadeA, quantidadeB, _lpTokens);\r\n\r\n        return (quantidadeA, quantidadeB);\r\n    }\r\n\r\n    function swapAporB(uint256 _quantidadeA) public returns(uint256) {\r\n        require(_quantidadeA > 0, \"Valor insuficiente\");\r\n\r\n        uint256 quantidadeComTaxa = _quantidadeA * (FEE_DENOMINATOR - FEE);\r\n        uint256 quantidadeB = (quantidadeComTaxa * reservaB) / (reservaA * FEE_DENOMINATOR + quantidadeComTaxa);\r\n\r\n        require(quantidadeB > 0 && quantidadeB < reservaB, \"Liquidez insuficiente\");\r\n\r\n        tokenA.transferFrom(msg.sender, address(this), _quantidadeA);\r\n        tokenB.transfer(msg.sender, quantidadeB);\r\n\r\n        reservaA += _quantidadeA;\r\n        reservaB -= quantidadeB;\r\n\r\n        emit Swap(msg.sender, address(tokenA), _quantidadeA, quantidadeB);\r\n\r\n        return quantidadeB;\r\n    }\r\n\r\n    function swapBporA(uint256 _quantidadeB) public returns(uint256) {\r\n        require(_quantidadeB > 0, \"Valor insuficiente\");\r\n\r\n        uint256 quantidadeComTaxa = _quantidadeB * (FEE_DENOMINATOR - FEE);\r\n        uint256 quantidadeA = (quantidadeComTaxa * reservaA) / (reservaA * FEE_DENOMINATOR + quantidadeComTaxa);\r\n\r\n        require(quantidadeA > 0 && quantidadeA < reservaA, \"Liquidez insuficiente\");\r\n\r\n        tokenA.transferFrom(msg.sender, address(this), _quantidadeB);\r\n        tokenB.transfer(msg.sender, quantidadeA);\r\n\r\n        reservaB += _quantidadeB;\r\n        reservaA -= quantidadeA;\r\n\r\n        emit Swap(msg.sender, address(tokenB), _quantidadeB, quantidadeA);\r\n\r\n        return quantidadeA;\r\n    }\r\n\r\n    function obterPrecoA() public view returns(uint256) {\r\n        require(reservaA > 0, \"Pool vazio\");\r\n        return (reservaB * 1e18) / reservaA;\r\n    }\r\n\r\n    function obterPrecoB() public view returns(uint256) {\r\n        require(reservaB > 0, \"Pool vazio\");\r\n        return (reservaA * 1e18) / reservaB;\r\n    }\r\n\r\n    function sqrt(uint256 x) internal pure returns(uint256) {\r\n        if (x == 0) return 0;\r\n\r\n        uint256 z = (x + 1) / 2;\r\n        uint256 y = x;\r\n\r\n        while(z < y) {\r\n            y = z;\r\n            z = (x / z + z) / 2;\r\n        }\r\n        return y;\r\n    }\r\n}",
  "sourcePath": "C:\\Users\\Jorge Paim\\Desktop\\Estudo\\ContratosPublicos_Solidity\\estudo_block\\contracts\\PoolDeLiquidez.sol",
  "compiler": {
    "name": "solc",
    "version": "0.8.21+commit.d9974bed.Emscripten.clang"
  },
  "schemaVersion": "3.4.16",
  "updatedAt": "2025-12-29T08:33:14.585Z",
  "networkType": "ethereum",
  "devdoc": {
    "kind": "dev",
    "methods": {},
    "version": 1
  },
  "userdoc": {
    "kind": "user",
    "methods": {},
    "version": 1
  }
}